:020000040800F2
:10000000702600209D010008C3380008492E000812
:10001000C1380008050D0008094000080000000074
:1000200000000000000000000000000005010008C2
:100030003F0D00080000000049010008293C0008AD
:10004000B7010008B7010008B7010008B7010008B0
:10005000B7010008B7010008B7010008B7010008A0
:10006000B7010008B7010008B7010008090D000832
:10007000B7010008B7010008B7010008B701000880
:10008000B7010008B7010008B7010008B701000870
:10009000B7010008B7010008B7010008B701000860
:1000A000B7010008B7010008B7010008B701000850
:1000B000B7010008B7010008D13C0008B7010008EB
:1000C000B7010008B7010008B7010008B701000830
:1000D000B7010008FD3F0008B7010008B70100089C
:1000E000B7010008B7010008B7010008DFF810D019
:1000F00000F002FD0048004761620008AFF3008095
:1001000070260020224B19680868B0E8F00F80F3D1
:100110000988BFF36F8F4FF0000080F311884EF015
:100120000D0E70470000000006480068006880F36C
:10013000088862B661B6BFF34F8FBFF36F8F00DFE1
:1001400000BF00BF08ED00E0EFF30980BFF36F8F41
:100150000F4B1A6820E9F00F106008B54FF05000FF
:1001600080F31188BFF34F8FBFF36F8F08F026FE27
:100170004FF0000080F31188BDE808401968086856
:10018000B0E8F00F80F30988BFF36F8F704700BFAE
:10019000A0000020EFF3058070470000064880476C
:1001A00006480047FEE7FEE7FEE7FEE7FEE7FEE75C
:1001B000FEE7FEE7FEE7FEE7CD3C0008ED000008A5
:1001C0002DE9F0410024061B254671F1000605DAF1
:1001D00001240027D0EB070067EB0101161E73F125
:1001E000000605DA0027D2EB0702012567EB0303BF
:1001F00000F03DFB86460E4617469C46AC4204D0B6
:100200000025D0EB050E65EB010624B10020D2EBF2
:10021000000760EB030C704631463A466346BDE882
:10022000F081202A04DB203A21FA02F000217047F5
:1002300021FA02F3D040C2F120029140084319464E
:10024000704740EA01039B0703D009E008C9121F69
:1002500008C0042AFAD203E011F8013B00F8013B80
:10026000521EF9D27047D2B201E000F8012B491EAC
:10027000FBD270470022F6E710B513460A46044643
:100280001946FFF7F0FF204610BD30B504460020A8
:10029000034600E05B1C934203D2E05CCD5C401B54
:1002A000F8D030BD034611F8012B00F8012B002ACD
:1002B000F9D118467047F0B480EA0102D40F420029
:1002C000B2EB410F02D20246084611464A0042D024
:1002D000C30DDDB2C1F3C752AD1A202D35DAC1F31B
:1002E000160141F4000204B15242C5F1200602FA9F
:1002F00006F12A411044B3EBD05F23D0C4B1012DE5
:10030000A0EBC35009DCF0BC4FF0004202EAC3523C
:10031000DBB200F5000000F005BB400000F180708A
:1003200000EBC350A0F1807040EAD170490009E0B1
:10033000490841EAC071A0EBC35000F50000400835
:1003400000EBC350F0BC00F0E4BA6142012202EBC2
:100350004101001BF6E7F0BC704781F00041AAE7BD
:1003600080F00040A7E780EA010210B502F00043E8
:10037000400022D04A001FD0010E01EB1261C0F3F1
:100380005600C2F3560240F4000042F40002A0FB03
:10039000022000047F39140400D0401C50EA1240AF
:1003A00001D44000491EC2B20C0604EBD010401C20
:1003B0004008802A02D003E0002010BD20F0010098
:1003C000002900DA0020184310BD30B480EA010291
:1003D00002F0004530F0004221F0004013D090B10F
:1003E000C30DD40DC2F31601C0F31600E41A41F494
:1003F000000140F400027D34914201D3641C00E00E
:100400004900002C02DA30BC002070474FF4000095
:100410000023914201D3891A034340084FEA410166
:10042000F7D151B1914202D14FF0004105E002D223
:100430004FF0010101E06FF0010103EBC4502844CB
:1004400030BC00F066BA420005D0C0F3C752524239
:10045000914201DC0020704700EBC15070472DE94C
:10046000FE4F804681EA0300C00F0C46009021F049
:10047000004123F00045B8EB0200A94105D24046F7
:10048000214690461C460B46024623F0004010438E
:1004900047D0270DC7F30A00C3F30A510290401A50
:1004A000019040286BDAC3F3130040F4801B0098DE
:1004B000924620B10023D2EB030A63EB0B0B0198A9
:1004C0005946C0F14002504600F002FA06460D4679
:1004D00050465946019A00F00AFA10EB08006141B3
:1004E000002487EA115284EAE7731A4340D0009A45
:1004F00062B3019A012A4FEA075215DC001B61EB37
:1005000002014FF0004202EA0752CDE90042001C0E
:1005100041F5801132462B4600F041FA03B0BDE8A8
:10052000F08F40462146F9E7001B61EB0201001CF9
:1005300041F5801300185B412018A2F5001747EB26
:10054000030140EAD570B6196D4111E06D084FEA1C
:10055000360645EAC0754FEA0752001B61EB0201FF
:10056000001C41F5801149084FEA30000019514143
:1005700032462B4603B0BDE8F04F00F001BA0098B8
:10058000012240000023D0EB020263EBE0730098ED
:1005900021464FEAE074B8EB000061EB0401E9E7A3
:1005A00083F000435BE781F0004158E72DE9FE4FFF
:1005B00081EA030404F0004421F0004100944FF06C
:1005C000000B23F0004350EA01045ED052EA03041A
:1005D0005BD0C3F30A54C1F30A552C44A4F2F3349C
:1005E0000194A0FB0254C1F3130141F48011C3F341
:1005F000130343F4801301FB024400FB034E840AFF
:10060000970A44EA815447EA8357A4FB0768029596
:100610008D0A05FB07854FEA932C04FB0C54270534
:10062000029D4FEA065847EA1637B5EB08056EEB10
:10063000070C870E920E47EA811742EA8312A7FB46
:100640000201B6EB0B0164EB00042B0D43EA0C3303
:100650005E1844EB1C50DA465146E7FB0201C5F335
:1006600013044FEA0B3343EA14534FEA0432019C5C
:1006700043EA0603A4F10C040294009CCDE900B403
:1006800000F08DF903B0BDE8F08F00200146F9E7D6
:100690002DE9F04D81EA030404F0004B21F0004500
:1006A00014464FF0000A23F0004150EA050220D022
:1006B00054EA01021DD0C5F30A570246C5F31303DD
:1006C000C1F31300C1F30A5640F4801543F48013BC
:1006D000A7EB0608101BD64608F2FD3873EB0500A1
:1006E00002D308F1010801E092185B41B8F1000F54
:1006F00003DA00200146BDE8F08D00204FF48011A0
:10070000064684460EE0171B73EB050705D3121B44
:1007100063EB050306434CEA010C49084FEA30003D
:1007200092185B4150EA0107EDD152EA030012D062
:1007300082EA040083EA0501084305D0101BAB419F
:1007400006D20122002306E000224FF0004302E01F
:100750006FF0010253101AEB06004CEB085110EB3E
:100760000A0041EB0B01BDE8F04D00F009B9C10FE3
:1007700080EAE0700844CA079623002100F0D2B84E
:1007800096230022114600F0CDB800F0004220F080
:100790000040C10DC0F3160040F400007F2901DACB
:1007A00000207047962903DCC1F19601C84001E0A2
:1007B00096398840002AF4D04042704720F000402B
:1007C000C10DC0F3160040F400007F2901DA0020BB
:1007D0007047962903DCC1F19601C84070479639ED
:1007E0008840704700F0004230F000400AD0C10D50
:1007F00001F56071C0F3160042EA0151C2084007DA
:100800001143704700200146704701F0004330B4A7
:1008100021F0004150EA010206D00A0DA2F56072F3
:10082000C1F31301002A02DC30BC00207047440FE2
:1008300044EAC104C100E01830BC00EBC25000F033
:1008400068B830B50B46014600202022012409E09B
:1008500021FA02F59D4205D303FA02F5491B04FA79
:1008600002F52844151EA2F10102F1DC30BD2DE98C
:10087000F05F0546002092469B4688460646814624
:1008800040241BE02846414647462246FFF7C9FC64
:1008900053465A46C01A914110D311461846224673
:1008A00000F016F82D1A67EB01084F46224601208A
:1008B000002100F00DF817EB00094E41201EA4F1B5
:1008C0000104DFDC484631462A464346BDE8F09F36
:1008D000202A04DB203A00FA02F100207047914000
:1008E000C2F1200320FA03F3194390407047202AF5
:1008F00006DBCB17203A41FA02F043EAE07306E048
:1009000041FA02F3D040C2F1200291400843194657
:1009100070470029A8BF7047401C490008BF20F05D
:100920000100704710B4B0FA80FC00FA0CF050EAF5
:10093000010404BF10BC704749B1CCF1200421FA76
:1009400004F411FA0CF118BF012121430843A3EB71
:100950000C01CB1D4FEA00614FEA102042BF00207E
:1009600010BC704700EBC35010440029A4BF10BC5A
:100970007047401C490008BF20F0010010BC7047C0
:1009800010B5141E73F1000408DA401C41F1000197
:1009900092185B411A4301D120F0010010BD2DE9EE
:1009A000F04D92469B4611B1B1FA81F202E0B0FAE5
:1009B00080F220329046FFF78BFF04460F4640EA54
:1009C0000A0041EA0B0153465A46084313D0114628
:1009D00053EA010019D0C8F140025046FFF721FC4C
:1009E00005460E46504659464246FFF771FF0843FA
:1009F00005D0012004E020463946BDE8F08D0020F6
:100A0000054346EAE0762C4337430A986305E40A37
:100A1000A0EB08000022FD0A44EA47540A3002D540
:100A200000200146E9E7010510196941DDE90845A3
:100A300000196941BDE8F04DA2E770B521F000430F
:100A400003430CD0C1F30A550024D5EB040564EB35
:100A50000403D617AD1AB34102DB0020014670BD76
:100A6000201841EB025170BDC1F30A52C1F31301CA
:100A700040F2FF3341F480119A4202DA002001462D
:100A8000704740F233439A42A2F2334202DC5242B0
:100A9000FFF7C7BBFFF71CBF30B5041E71F10004A0
:100AA00004DB4FF00044404264EB0101141E73F17B
:100AB000000405DB1C464FF00043524263EB040385
:100AC0008B4208BF824230BD30B5041E71F1000474
:100AD00004DB4FF00044404264EB0101141E73F14B
:100AE000000405DB1C464FF00043524263EB040355
:100AF000994208BF904230BD064C074D06E0E068C1
:100B000040F0010394E8070098471034AC42F6D354
:100B1000FFF7F0FA60D3000880D300082DE9F04D0C
:100B200000231A461B1A8A4103DB00200146BDE858
:100B3000F08DC1F30A52C1F3130141F480154FF057
:100B4000000BD10702D100186D41521E0027044648
:100B500040F2FF11384601EB620A3E4680460246EB
:100B600000204FF48011FFF75CFBC2197141BB18E4
:100B700046EB0100B4EB030C75EB000C04D3E41A54
:100B800065EB000517460E46241908F101006D417A
:100B900080463428E3DDF91946EB0600091BA8411D
:100BA00003D24FF0FF32134601E0002213461BEB45
:100BB000070046EB0A51BDE8F04DFFF7E1BE00002B
:100BC00070B5044600688168C943C90717D18168B8
:100BD00021F00101816000F099FD05460AE000BFA7
:100BE00000F094FD401B022804D920688068C043AF
:100BF000C00706D020688068C043C007F0D000203E
:100C000070BDA06A40F01000A062E06A40F00100F0
:100C1000E062012070BD10B50146406A826A12F0A0
:100C2000500F05D0006A026BBDE81040084610471F
:100C3000816A41F40071816201688968C1F34241AF
:100C400007290CD1017B51B9816A21F4807181623D
:100C5000816AC90403D4816A41F00101816200F014
:100C60005BF910BD10B5406A816A41F040018162B4
:100C7000C16A41F00401C16200F050F910BD10B525
:100C8000406A00F04AF910BDF8B500260446009607
:100C900000688168C943C9072DD0816841F001010E
:100CA0008160164816490068B0FBF1F000E0401E74
:100CB00000900028FBD100F029FD054616E000BF9A
:100CC00000F024FD401B022810D920688068C04332
:100CD000C0070BD0A06A40F01000A062E06A40F0AC
:100CE0000100E06284F824600120F8BD206880687B
:100CF000C043C007E4D10020F8BD00001000002070
:100D000040420F00FEE70000014800F0E3BA000097
:100D1000AC03002030B590F840500124AC40C56BC6
:100D20006C60046863604368102B036803D09960AB
:100D30000068C26030BD9A600068C16030BD704715
:100D400072B6FEE7F8B500250446009590F8240039
:100D5000012808D0012084F824002046FFF730FF46
:100D6000060002D053E00220F8BDA06A20F48850AB
:100D700040F00200A062022000F046FF2649096808
:100D8000B1FBF0F0400000E0401E00900028FBD1D5
:100D90002046FFF779FF2068816841F008018160F3
:100DA00000F0B4FC074608E000F0B0FCC01B0A28C5
:100DB00003D920688068000715D420688068000780
:100DC000F2D42068816841F00401816000F09EFC4B
:100DD000074612E000F09AFCC01B0A280DD92068D3
:100DE0008068400709D5A06A20F0020040F010009A
:100DF000A06284F824500120F8BD20688068400774
:100E0000E8D4A06A20F0020040F00100A06284F85B
:100E100024503046F8BD000010000020F8B5002432
:100E2000009490F824202546012A12D0012280F84F
:100E300024204A681F23072A0DD20668776B521EAA
:100E400002EB820293409F430B6893401F437763FA
:100E500019E00220F8BD06680D2A0AD2376BD21FAE
:100E600002EB820293409F430B6893401F4337631A
:100E700009E0F76A0D3A02EB820293409F430B6848
:100E800093401F43F7620A68072306680A2A0AD3B9
:100E9000F7680A3A02EB420293409F438B68934003
:100EA0001F43F76008E0376902EB420293409F431B
:100EB0008B6893401F4337610A68102A01D0112ABA
:100EC00020D1124B02689A4217D193681B0219D4A1
:100ED000936843F4000393600968102912D10C4908
:100EE0000C4A0968B1FBF2F101EB8101490000E015
:100EF000491E00910029FBD104E0816A41F02001E4
:100F00008162012480F824502046F8BD002401406D
:100F10001000002040420F007047704770470000EB
:100F20002DE9F0414FF0000704003D467ED0A06A55
:100F3000002628B9E66284F82460204600F07EF896
:100F40002046FFF73DFEA16AC90600D420B1A06A81
:100F500040F01000A06269E0A16A21F4885141F0DC
:100F60000201A1626268E169237B0A4347EA430107
:100F70000A43A1684FF48077B94209D0012907D00C
:100F80005FF0000194F814C0BCF1010F02D00AE038
:100F90003946F7E7F3B1A36A43F02003A362E36A9B
:100FA00043F00103E3622368D3F804C02CF4694CD6
:100FB0004CEA010CC3F804C021688B68DFF870C0EC
:100FC00003EA0C0313438B60A168B9420BD00129DB
:100FD00009D00CE0DFF85CC0A3690CEB43330B4392
:100FE00043F40061DFE7218A0D05A5F5801521682E
:100FF000CB6A23F470032B43CB62216889680E4BC4
:101000001940914208D1E662A16A21F0020141F043
:101010000101A162BDE8F081A06A20F0020040F069
:101020001000A062E06A40F00100E0620120F1E7F8
:10103000FDF7E1FF00E0FFFFFE0E1FFF70B586B079
:101040000025064600950195029503950068204904
:1010500088423BD11F49886940F4007088618869E3
:1010600000F400700490886940F004008861886989
:1010700000F004000490886940F0080088618869E5
:10108000032400F00800049000946946019412487B
:1010900000F042FA009469461048019400F03CFACE
:1010A000104C0F48C4E900058020C4E902504000FC
:1010B0002061800060612020C4E90605204600F020
:1010C000B3F908B1FFF73CFE3462666206B070BD4A
:1010D000002401400010024000080140000C0140C3
:1010E00008000240AC0300202DE9F0478946044681
:1010F0003B4900683B4F0E1D9046884201D0B842E4
:1011000007D1306810F4702F03D001252846BDE8C0
:10111000F08794F8240001280CD0012084F82400E2
:101120002046FFF7B1FD05004FF0000004D084F821
:101130002400EBE70220EAE7A16A40F6016291434E
:1011400041F48071A1622168B94218D1326812F469
:10115000702F14D0A16A41F48011A1623168490551
:1011600005D5A16A21F4005141F48051A162A16A20
:10117000C9040AD5E16A21F00601E16206E0A26A2B
:1011800022F48012A2624968E9E7E06284F8240050
:10119000216A15488862216A1448C862216A144885
:1011A000086321686FF0020008602068816841F4DC
:1011B00080718160216843464A464C31206A00F0C4
:1011C00061F920688168C1F342410729816803D031
:1011D00041F48011816099E741F4A001FAE7000031
:1011E0000024014000280140170C00087F0C000873
:1011F000650C000810B590F821100022022905D0D6
:101200000421816380F82020012010BD01680B6853
:1012100023F00E030B6001680B6823F001030B60E1
:1012200090F84030C46B012101FA03F3636080F849
:10123000211080F82020104610BD000010B590F855
:1012400021100024022903D00421816301243DE000
:1012500001680A6822F00E020A6001680A6822F03A
:1012600001020A601A4A0168914201D1012121E07C
:10127000174A1432914201D110211BE0144A28323E
:10128000914201D1891515E0114A3C32914201D1B8
:1012900089140FE00E4A5032914202D14FF480314E
:1012A00008E00B4A6432914202D14FF4801101E010
:1012B0004FF08071064A083A5160012180F82110F0
:1012C000002180F82010416B01B18847204610BDF5
:1012D000080002402DE9F05FC16B0C6801680B68E3
:1012E000D0F840C0042202FA0CF2494DDFF824A1E4
:1012F000494E4A4FDFF828B1DFF828E122422CD0CE
:101300005A072AD50A68920603D40A6822F0040212
:101310000A600168A94201D1042219E0514501D1B6
:10132000402215E0B14202D14FF4806210E0B94290
:1013300002D14FF480420BE0594502D14FF4802294
:1013400006E0714502D14FF4800201E04FF0806267
:101350002F4908394A60C16A3BE04FF0020808FA99
:101360000CF818EA040F4FF000094FF0010235D0D5
:101370005FEA837832D50B689B0605D40B6823F0AF
:101380000A030B6080F821200168A94201D10222E2
:1013900019E0514501D1202215E0B14202D14FF4AC
:1013A000007210E0B94202D14FF400520BE05945EF
:1013B00002D14FF4003206E0714502D14FF4001221
:1013C00001E04FF00072124908394A6080F820901D
:1013D000816A00291AD0BDE8F05F0847082505FAA0
:1013E0000CF5254212D01B0710D50B6823F00E0315
:1013F0000B6090F84010C36B02FA01F159608263F0
:1014000080F8212080F82090016BE2E7BDE8F09F92
:10141000080002401C00024030000240440002402C
:10142000580002406C00024030B528B308C8134988
:1014300014221944B1FBF2F18900C16310498163A0
:10144000022141771A6843F6F0718A43D0E900140B
:101450002143D0E902452C432143046921434469D7
:101460002143846921431143196000214163012212
:1014700042770177084630BD012030BDF8FFFDBF3F
:101480000000024070B5044690F8200000250128B5
:101490000CD0012084F8200094F821600020012E57
:1014A00006D084F820000225284670BD022070BDB9
:1014B000022684F82160A0632068066826F00106F1
:1014C00006602046FFF726FCE06A002820680168D5
:1014D00002D041F00E0106E021F004010160206815
:1014E000016841F00A0101602068016841F00101D2
:1014F0000160D9E770B5044600F008F90546601CA4
:1015000002D004480078044400F000F9401BA042D7
:10151000FAD370BD040000202DE9F84FDFF8B89130
:10152000002409F1040A0AF1040B23460F270BF1EA
:10153000040EC9E00125A5402A40AA427DD1674E8C
:10154000D1F804C0ACEB0608B44532D014DCBCF1D1
:10155000030F3AD009DCBCF1000F2AD0BCF1010F17
:101560001CD0BCF1020F31D11DE0BCF1110F17D01E
:10157000BCF1120F2AD119E0B8F5881F19D006DC8A
:10158000B8F5803F15D0B8F5801F1FD111E0B8F530
:10159000001F0ED0B8F5041F18D10AE0CB6815E083
:1015A000CB681B1D12E0CB6808330FE0CB680C330F
:1015B0000CE08B682BB1012B4FF0080303D0456181
:1015C00004E0042302E0056100E00023FF2A01D8C3
:1015D000064601E000F104064FEA840501D9A5F1B1
:1015E0002005D6F8008007FA05FC28EA0C0803FA63
:1015F00005F548EA0508C6F800804D68ED0062D59B
:10160000374DAE6946F00106AE61AD6924F00306C0
:1016100005F001050095334D06EB050CDCF808508C
:10162000A607360F07FA06F825EA0805DFF8B8809E
:10163000404503D14FF0000817E044E0DFF8AC80EC
:10164000404502D14FF001080FE0DFF8A48040458B
:1016500002D14FF0020808E0DFF89880404502D13F
:101660004FF0030801E04FF0040808FA06F848EAD2
:101670000508CCF808804D68D9F80060ED034D46A8
:1016800001D5164300E096432E604D68DAF80060FD
:10169000AD03554601D5164300E096432E604D68D4
:1016A000DBF80060ED025D4601D5164300E096438D
:1016B0002E604D68DEF80060AD02754601D5164318
:1016C00000E096432E60641C0D682A46E5407FF4D6
:1016D00031AFBDE8F88F0000000401400000111098
:1016E000001002400000014000080140000C0140D1
:1016F00000100140001401408068084000D0012023
:1017000070470AB1016170470904FBE7014880682E
:10171000704700000400002070B5040025D094F844
:101720003D00002520B984F83C50204600F04EF9D9
:10173000242084F83D002068016821F00101016047
:101740002068016841F4004101602068016821F4CB
:101750000041016000F0E8FB4D4A6168914201D808
:101760004C4900E04C49884201D2012070BD4B49F0
:101770002368B0FBF1F15E6826F03F060E435E6021
:101780006368934206D94FF4967359434FF47A73C2
:10179000B1FBF3F12368491C1E6A26F03F06314372
:1017A00019626168914210D84900401EB0FBF1F205
:1017B000521CC2F30B02042A01D2042022E0B0FB27
:1017C000F1F0401CC0F30B001CE0A268F2B301EB87
:1017D000C10303EB0116431EB3FBF6F35B1C43F49A
:1017E00080431B0549D092B301EBC10202EB01110A
:1017F000401EB0FBF1F0401CC0F30B0040F48040F1
:1018000040F400402168CA694CF6FF739A431043C4
:10181000C861D4E9071001432068026822F0C002C1
:1018200011430160D4E9030101432068826848F252
:10183000FF339A4311438160D4E9050108432168CD
:10184000CA6822F0FF021043C86001E00EE016E013
:101850002068016841F0010101602564202084F8BE
:101860003D00256384F83E50002070BD01EB410629
:10187000431EB3FBF6F35B1CB3E70120C2E701EBA9
:101880004101401EB0FBF1F0401CC0F30B00B7E774
:10189000A086010080841E0000093D0040420F0028
:1018A0002DE9F84F1F4690468A460446DDF82890F9
:1018B000FFF72CFF054694F83D0020287FD119231F
:1018C000012240492046009501F04AFB002876D1CC
:1018D00094F83C00012872D0012084F83C00206874
:1018E0000168C90703D1016841F001010160206866
:1018F000016821F400610160212084F83D0010207E
:1019000084F83E0000262664C4F824806785608D34
:1019100020852D48E0622B464A465146204601F07C
:10192000ABFA90B9206841698069009036E02A4698
:101930004946204601F093FB50B1206C042804D1A5
:101940002068016841F4007101600120BDE8F88F52
:10195000606A216800780861606A401C6062618D7D
:10196000491E6185218D491E89B2218522685369EE
:10197000DB435B070BD451B100781061606A401CF7
:101980006062608D401E6085208D401E20852A4645
:101990004946204601F0BEFA0028CED1208D00280D
:1019A000C5D154F83D0B016841F40071016020205D
:1019B00004F81E09E67766770020C7E7FFE70220F4
:1019C000C4E70000020010000000FFFF30B585B042
:1019D00000210091019102910391224D0368224C54
:1019E000122103222148AB4216D1A36943F0080318
:1019F000A361A369039203F008030493C023CDE914
:101A000000316946FFF788FDE06940F40010E061AD
:101A1000E06900F4001021E0154DAB421FD1E369ED
:101A200043F48003E361E36903F480030493A3694F
:101A300043F00803A361A369039203F0080304932E
:101A40004FF44063CDE900316946FFF765FDE06979
:101A500040F48000E061E06900F48000049005B08B
:101A600030BD00000054004000100240000C014056
:101A70000058004002488168027811448160704734
:101A800004000020074810B5016841F01001016012
:101A9000032000F0A7F80F2000F006F800F050F83F
:101AA000002010BD0020024030B505461F4887B019
:101AB000C16941F00401C161C06906A900F00400D8
:101AC000009001A800F010FA0498B0B100F02CFAD0
:101AD00040001749174AB0FBF1F11748491E026050
:101AE000416040F2E7320021C0E903218160816159
:101AF00000F0BAFD040003D015E000F015FAE8E7A5
:101B00000D4800F01BFE04000DD11E2000F03CF833
:101B1000102D07D2002229461E2000F043F8074866
:101B2000056000E0012407B0204630BD00100240EF
:101B300040420F00000800407C0500200800002003
:101B40000F4808B5816941F001018161816901F0A7
:101B500001010091C16941F08051C161C069002259
:101B600000F0805000900F21901E00F01BF80548F7
:101B7000416821F0E06141F00071416008BD000062
:101B80000010024000000140002809DB00F01F02A5
:101B9000012191404009800000F1E020C0F80011CF
:101BA00070470000F0B40E4B1B680C46C3F30223D1
:101BB000C3F10705042D00D90425191D072901D2F9
:101BC000002300E0DB1E012606FA05F1491E214034
:101BD00099409E40761E16403143F0BC02F068BA30
:101BE0000CED00E0064900F0070208684FF6FF031D
:101BF000184040EA0220034A104308607047000082
:101C00000CED00E00000FA0510B529A401461DCC3A
:101C100086B08DE81D002AA02A4C006804900020A0
:101C2000012923D002293AD010291DD161682268E8
:101C3000D20119D5C1F38342C9031DF8020009D5A9
:101C4000616804AAC1F34041515C1F4AB2FBF1F143
:101C5000484301E01D4948436168490204D44000FB
:101C60005FF00301B0FBF1F006B010BD226AC2F3D1
:101C70000121012903D1920701D5C803F4E7022904
:101C800005D1626A920702D549F64040ECE7032984
:101C9000EAD121688903E7D54FF22440E4E700F058
:101CA00053F96168C1F38131491C4900DAE700004A
:101CB00002030405060708090A0B0C0D0E0F10108D
:101CC000010200000010024000127A0000093D00ED
:101CD0002DE9F84305460078354CC00754D0E0693B
:101CE0000026C00008D4E06940F08050E061E0695F
:101CF000012600F0805000902E480168C90512D4DA
:101D00000168804641F480710160FFF7FFFC0746DF
:101D100005E000BFFFF7FAFCC01B642823D8D8F801
:101D20000000C005F6D5206A10F4407021D0A988C3
:101D300001F4407181421CD0206A1F49012220F425
:101D400040700A6000220A602062C00711D0FFF7CD
:101D5000DDFC074641F2883808E000BFFFF7D6FCFB
:101D6000C11B414502D90320BDE8F883206A8007E2
:101D7000F4D5206A696820F44070084320621EB1DF
:101D8000E06920F08050E0612878800705D5606820
:101D9000A96820F44040084360602878C00605D553
:101DA0006068E96820F48000084360600020DBE799
:101DB0000010024000700040400442422DE9F0470C
:101DC0000F46050061D0434E306800F00700B8426E
:101DD00009D2306820F0070038433060306800F0E6
:101DE0000700B84251D128683B4C810712D5400703
:101DF00003D5606840F4E06060602878000703D590
:101E0000606840F4605060606068A96820F0F0008D
:101E1000084360602878C00728D06868012810D07F
:101E20002168022810D0890700292EDA616821F084
:101E3000030101436160FFF769FC804641F2883984
:101E40000DE021688903EFE78901EDE7FFF75EFC0C
:101E5000A0EB0801494502D90320BDE8F08760687E
:101E6000696800F00C00B0EB810FEFD1306800F032
:101E70000700B8420BD9306820F0070038433060C3
:101E8000306800F00700B84201D00120E5E728786B
:101E9000400705D56068E96820F4E06008436060A9
:101EA0002878000706D56068296920F4605040EA68
:101EB000C100606000F058F86168084AC1F303117E
:101EC000515CC8400649086006480068FFF7ECFD11
:101ED0000020C2E700200240001002405497000892
:101EE00010000020080000200F2202600C4A5368F6
:101EF00003F003034360536803F0F0038360536807
:101F000003F4E063C36052684FF4E06303EAD20273
:101F100002610448006800F0070008607047000094
:101F2000001002400020024004480549006849684A
:101F3000044AC1F30221515CC840704710000020E0
:101F40000010024064970008044805490068496889
:101F5000044AC1F3C221515CC84070471000002000
:101F6000001002406497000812A185B00FC98DE8E7
:101F70000F0014A0144A006804905168134801F03F
:101F80000C03042B10D0082B0ED1C1F38343C903DB
:101F90001DF803000AD5516804AAC1F34041515C01
:101FA0000A4A5043B0FBF1F005B070470849484376
:101FB000FAE7000002030405060708090A0B0C0DE6
:101FC0000E0F1010010200000010024000127A00F3
:101FD00000093D002DE9F84F040070D02078C04D75
:101FE000C00749D06868C0F38100012807D068683D
:101FF000C0F38100022809D16868C00306D52868AB
:10200000800339D560680028E7D035E06068B0F516
:10201000803F0BD010B1B0F5A02F11D0286820F46C
:1020200080302860286820F4802002E0286840F48E
:1020300080302860606890B1FFF768FB06460AE0D0
:10204000286840F480202860F0E700BFFFF75EFBBF
:10205000801B642873D828688003F7D50CE0FFF74D
:1020600055FB064605E000BFFFF750FB801B6428C8
:10207000F0D828688003F7D420789A4E80074FF074
:1020800001094FF0000839D5686810F00C0F07D02F
:102090006868C0F38100022809D16868C00306D4CB
:1020A0002868800714D52069012808D110E020692C
:1020B000B0B1C6F80090FFF729FB074605E00AE13A
:1020C000FFF724FBC01B0228C4D828688007F7D577
:1020D0002868616920F0F80040EAC10028600DE03E
:1020E000C6F80080FFF712FB074604E0FFF70EFB7F
:1020F000C01B022823D828688007F7D4207800075F
:102100002CD57948A169D9B1C0F80090FFF7FEFA43
:10211000074604E0FFF7FAFAC01B02280FD8686AE6
:102120008007F7D571484FF4FA510068B0FBF1F021
:10213000009000BF0098411E0091FAD20EE080E0AE
:10214000C0F80080FFF7E2FA074604E0FFF7DEFA86
:10215000C01B022875D8686A8007F7D4207840072A
:1021600060D5E8690027C00008D4E86940F08050D5
:10217000E861E869012700F0805000905C48016840
:10218000C90513D40168834641F480710160FFF7EB
:10219000BDFA824606E000BFFFF7B8FAA0EB0A00DE
:1021A00064284ED8DBF80000C005F5D5E0680128AA
:1021B0000AD008B1052813D0286A20F0010028624F
:1021C000286A20F0040002E0286A40F0010028623A
:1021D000E06841F2883B98B1FFF798FA82460BE03D
:1021E000286A40F004002862EEE700BFFFF78EFA8D
:1021F000A0EB0A0159455AD8286A8007F6D50CE0A9
:10220000FFF784FA824605E0FFF780FAA0EB0A01A7
:1022100059454CD8286A8007F6D41FB1E86920F0E8
:102220008050E861E06988B36968C1F381010229DF
:1022300044D00228C6F8608004D0FFF767FA04464D
:1022400038E034E0FFF762FA074604E0FFF75EFA91
:10225000C01B02282BD828688001F7D4206AB0F56B
:10226000803F05D16868A16820F4003008436860A9
:10227000D4E908010843696821F4741108436860CF
:10228000C6F86090FFF742FA044606E025E000BF7A
:10229000FFF73CFA001B022809D828688001F7D50F
:1022A0001BE000BFFFF732FA001B022802D903200F
:1022B000BDE8F88F28688001F4D40EE00128F7D03B
:1022C0006868226A00F48031914204D1616A00F4A6
:1022D0007010884201D00120EAE70020E8E7000002
:1022E00000100240000042428004424210000020E0
:1022F0000070004070B5040009D0606A002540B14C
:1023000025616561A56294F8510040B10CE001209F
:1023100070BD6068B0F5827FF4D0E561F2E784F8C3
:102320005050204600F040F8022084F85100206808
:10233000016821F040010160A088218900F48270C9
:1023400001F404410843A18901F400610843217CA0
:1023500001F002010843217D01F001010843218BB6
:1023600001F400710843217F01F03801084394F81B
:10237000201001F080010843218D01F40051084331
:1023800021680860A069042101EA104021684860C2
:102390002068C16921F40061C1616565012084F88C
:1023A0005100002070BD000030B585B000240094BD
:1023B00001940294039400681449884223D114487C
:1023C000816941F480518161816901F480510491F6
:1023D000816941F00401816180690E4D00F00400C3
:1023E0000490A020009002200190032003906946F1
:1023F0002846FFF791F84020CDE9000469462846B9
:102400000294FFF789F805B030BD000000300140AC
:1024100000100240000801402DE9F84F044690F8F2
:10242000500000270A9E1D4692468B464FF0010938
:1024300001280ED0012084F85000FFF767F980468C
:1024400094F85100616801280CD0B1F5827F07D162
:1024500002E00220BDE8F88FA16809B9042801D084
:102460000227C2E0BBF1000F27D0BAF1000F24D041
:102470001DB394F85100042802D0052084F85100BF
:1024800000206065C4F838A0E587A587C4F830B09F
:10249000E586A5862064606420680168490603D447
:1024A000016841F040010160E068B0F5006F6068CC
:1024B00005D0E8B3012D46D07FE0012795E008B1B3
:1024C000012D39D1206B21680088C860206B801CE9
:1024D0002063E08E401EE0862EE020688168890738
:1024E0000FD5E18E69B1B9F1010F0AD1216B0988CD
:1024F000C160206B801C2063E08E401EE0864FF0A0
:10250000000920688168C9070CD0E18F51B1C0680B
:10251000A16B0880A06B801CA063E08F401EE08749
:102520004FF00109FFF7F2F8A0EB0800B04200E01D
:1025300009E001D3701C50D1E08E0028CDD1E08F8E
:102540000028CAD13FE0206B216800780873206B17
:10255000401C2063E08E401EE0862EE020688168EB
:1025600089070FD5E18E69B1B9F1010F0AD1216B4D
:1025700009780173206B401C2063E08E401EE086CA
:102580004FF0000920688168C9070CD0E18F51B174
:10259000C068A16B0870A06B401CA063E08F401E58
:1025A000E0874FF00109FFF7B1F8A0EB0800B04257
:1025B00002D3701C01D010E07EB1E08E0028CDD196
:1025C000E08F0028CAD142463146204601F0B0FAD9
:1025D00028B101272020606507E0032705E0A068F7
:1025E00018B92068C16880680090012084F8510003
:1025F000002084F8500038462CE7704770470000F0
:1026000070B590F83C20012A26D0012480F83C4087
:10261000022280F83D2003685A689D6822F0700607
:102620000A6832435A600D4B02689A4208D0B2F1F0
:10263000804F05D00A4B9A4202D00A4B9A4204D1ED
:10264000496825F080031943916080F83D400021DE
:1026500080F83C10084670BD022070BD002C01407F
:10266000000400400008004010B5040003D094F8B6
:102670003D0010B107E0012010BD002084F83C00AF
:10268000204600F01FF8022084F83D00211D20683C
:1026900001F024FB012084F8460084F83E0084F811
:1026A0003F0084F8400084F8410084F8420084F838
:1026B000430084F8440084F8450084F83D0000207D
:1026C00010BD000008B500680649884208D10648D8
:1026D000C16941F00201C161C06900F002000090CF
:1026E00008BD0000000400400010024090F83D10BA
:1026F000012901D001207047022180F83D100068B7
:102700000B49884208D0B0F1804F05D00949884272
:1027100002D00949884204D1816801F007010629E5
:1027200003D0016841F00101016000207047000002
:10273000002C0140000400400008004090F83D10CB
:10274000012901D001207047022180F83D10016865
:10275000CA6842F00102CA6000680B49884208D08A
:10276000B0F1804F05D00949884202D0084988421B
:1027700004D1816801F00701062903D0016841F006
:102780000101016000207047002C0140000400405E
:102790000008004070B5044690F83C00012817D0AE
:1027A000012584F83C50022084F83D0020688268AE
:1027B00022F0770222F47F4282600868502830D0ED
:1027C0000DDC20284DD005DC98B310283BD148E023
:1027D000022070BD302844D0402834D139E0602830
:1027E00028D0702806D0B0F5805F2CD0B0F5005FFF
:1027F00029D10AE0CB68D1E90121206801F0A4FACF
:102800002068816841F0770109E0CB68D1E90121B6
:10281000206801F099FA2068816841F48041816064
:1028200011E0CA684968206801F0A0FA50212068C8
:1028300007E016E0CA684968206801F0A8FA60213C
:10284000206801F08BFA84F83D50002084F83C00A9
:1028500070BDCA684968206801F088FA4021206884
:10286000EFE7226801461046EBE7704770B5044673
:10287000006801694FF00005C943890715D4C16894
:10288000C943890711D4E91E01610120207720681E
:1028900080698007204602D0FFF7E7FF04E000F0E0
:1028A00098F8204600F096F8257720680169C9431A
:1028B000490717D4C168C943490713D46FF004010D
:1028C0000161022020772068806910F4407F204653
:1028D00002D0FFF7CAFF04E000F07BF8204600F0CA
:1028E00079F8257720680169C943090716D4C168BA
:1028F000C943090712D46FF0080101610420207751
:102900002068C0698007204602D0FFF7AEFF04E0D0
:1029100000F05FF8204600F05DF825772068016937
:10292000C943C90617D4C168C943C90613D46FF097
:1029300010010161082020772068C06910F4407FF1
:10294000204602D0FFF791FF04E000F042F8204655
:1029500000F040F8257720680169C943C90708D10C
:10296000C168C943C90704D1891E0161204600F02E
:1029700033F820680169C943090609D4C168C9430D
:10298000090605D46FF0800101612046FFF735FE8E
:1029900020680169C943490609D4C168C943490689
:1029A00005D46FF040010161204600F01FF8206857
:1029B0000169C94389060BD4C168C943890607D494
:1029C0006FF0200101612046BDE87040FFF716BEA0
:1029D00070BD70477047000000680349884201D10C
:1029E000FFF748B870470000000800407047704784
:1029F00070470000F8B5026804461068D168536952
:102A000010F00F0F4FF0000553D003F0010601F452
:102A1000907737435FD0C20705D0CA0503D5226C33
:102A200042F001022264420705D5DA0703D0226C86
:102A300042F002022264820705D5DA0703D0226C35
:102A400042F004022264020707D501F0200232435B
:102A500003D0226C42F008022264226C002A34D097
:102A6000800604D5880602D5204601F0C2F9206808
:102A70004069216CC0F38010090700D430B32046B0
:102A800001F09FF92068416949061BD5416921F091
:102A900040014161A06BA8B158494163A06BFEF7AA
:102AA000CDFB002811D0A06B416B01B0BDE8F04018
:102AB000084783060FD58B060DD52046BDE8F840A4
:102AC00001F097B92046FFF793FFF8BD2046FFF7C6
:102AD0008FFF2564F8BD266B2023012E52D1C60638
:102AE00050D5CE064ED5106850680090506940060B
:102AF0002AD5A16B086840680004000CEAD0A68DB6
:102B00008642E7D9E0858869202818D0D06820F46B
:102B10008070D0602068416921F001014161206826
:102B2000416921F04001416184F83E30256320680D
:102B3000C16821F01001C160A06BFEF75BFBA08DA6
:102B4000E18D401A81B219E0A08DE18D401A81B269
:102B5000E08D0028BED00029BCD0D06820F4907051
:102B6000D0602068426922F00102426184F83E3060
:102B700025632068C26822F01002C2602046FFF779
:102B800036FFF8BD05062BD50D0629D594F83D0076
:102B90002128F6D1A068B0F5805F01D12069B0B1DD
:102BA000206A411C2162216800784860E08C401E48
:102BB0000004000CE084E4D12068C16821F08001A9
:102BC000C1602068C16841F04001C160F8BD206A61
:102BD0000088C0F308005060206A801C2062E5E78E
:102BE0004006F3D54806F1D5D168204621F04001D2
:102BF000D16084F83D3000F026F9F8BDB33D0008FF
:102C000070B5040004D094F83D00002510B106E032
:102C1000012070BD84F83C50204600F023F82420A9
:102C200084F83D002068C16821F40051C16020464D
:102C300001F03AF92068016921F4904101612068AE
:102C4000416921F02A0141612068C16841F40051C5
:102C5000C1602564202084F83D0084F83E000020F7
:102C600070BD000030B585B000240094019402943A
:102C700003940068184988422CD11848816941F4AE
:102C800080418161816901F480410491816941F051
:102C9000040181618069124D00F0040004904FF43A
:102CA000007000900220019003200390694628469E
:102CB000FEF732FC2815CDE9000469462846029447
:102CC000FEF72AFC002205212520FEF76BFF2520B8
:102CD000FEF75AFF05B030BD003801400010024039
:102CE0000008014090F83E30202B0ED159B152B16E
:102CF00090F83C30012B08D0012380F83C300023B1
:102D0000036301F02DB901207047022070470000D5
:102D100070B500681B49884233D11B4C00254FF623
:102D2000FF766088C8280BD36580C8211748FDF757
:102D3000A1FA33460D22211D154800F02BF819E0A9
:102D400011490A7811490A54401C82B288186280DD
:102D500010F8011C0A290DD110F8020C0D2809D118
:102D600033460A490A4800F015F8C8210748FDF71C
:102D700081FA6580BDE87040012203490448FFF7ED
:102D8000B1BF70BD0038014014000020C405002010
:102D9000380500202DE9F843044690F83D001F4611
:102DA00016460D4620284CD1C5B1BEB194F83C0062
:102DB000012846D0012084F83C004FF00008C4F8F8
:102DC0004080212084F83D00FEF7A0FCA6848146C7
:102DD000E684A068B0F5805F03D004E00120BDE880
:102DE000F883206928B12E465FF0000584F83C8006
:102DF0000EE00026FAE78021204601F0CCF8A0B9C9
:102E0000AEB116F8010B21684860E08C401EE084EA
:102E1000E08C4B464FF0000200970028EBD14FF0BA
:102E20004001204601F0B7F830B10320D7E735F86C
:102E3000020BC0F30800E6E7202084F83D000020E4
:102E4000CDE70220CBE77047FEE701684A69D2432D
:102E500052050FD46FF480624A61002140F8301FA0
:102E6000202242738173026942F0040202610173FD
:102E70000120704700207047F8B50446C06A1E461E
:102E80000D461746082807D0012805D010F5803FC9
:102E900002D0206B122804D12068016841F48071AF
:102EA0000160134600224FF001112046009600F009
:102EB00057F840B120680068C00502D54FF4007093
:102EC00020640320F8BD2069B0F5804F0ED00620A5
:102ED000216800EAD51040F0F000086133463A4618
:102EE0000B49204600F070F878B902E005F0FE00CA
:102EF00000E0E8B221680861054933463A46891F77
:102F0000204600F061F80028DCD00120F8BD000068
:102F10000800010070B516460D4604460DE0204637
:102F2000FFF793FF08B1012070BD681C05D0FEF7C4
:102F3000EDFB801BA84207D835B120684069C0432B
:102F40004007ECD4002070BD002044F8300F202151
:102F50006173A073216941F0200121612073E2E7D0
:102F60002DE9F0471E4690460D460446C1F307473B
:102F7000DDF8209008E0701C06D0FEF7C7FBA0EB40
:102F80000900B0420FD876B12068012F18D08069AF
:102F900025EA00000004000C14D000214145EAD0CD
:102FA0000020BDE8F087002044F8300F2021617335
:102FB000A073216941F02001216120730120F0E715
:102FC0004069E5E70121E9E72DE9F0479A46914696
:102FD0000E46044600254FF02008C1F3074725E0C0
:102FE00020684069C043400514D42068016841F45A
:102FF0000071016021686FF480604861256384F886
:103000003D8084F83E50206C40F00400206484F839
:103010003C501FE0B9F1FF3F08D0FEF777FBA0EB73
:103020000A0149450CD8B9F1000F09D02068012FD9
:1030300013D0806926EA00000004000C0BD0CFE713
:1030400044F8305F84F80D80A573206940F02000BB
:10305000206125730120BDE8F0874069EAE770B57B
:1030600016460D4604460DE02046FFF7EEFE08B179
:10307000012070BD681C05D0FEF748FB801BA842EC
:1030800007D835B120684069C0430006ECD4002061
:1030900070BD002044F8300F20216173A0732169B6
:1030A00041F0200121612073E2E7000070B5104D6E
:1030B0004FF40064002221462846FEF722FB00F070
:1030C00019F80122960231462846FEF71AFB00F055
:1030D00011F8002231462846FEF713FB00F00AF8EB
:1030E00021462846BDE870400122FEF70ABB0000D9
:1030F000000C01400020401CC0B20A28FBD37047DE
:103100000C4800B5816985B041F008018161806992
:10311000694600F0080004904FF4406000900320DE
:103120000390112001900448FEF7F6F900F0AAF888
:1031300005B000BD00100240000C014070B50C4C01
:103140000122D1022046FEF7DCFAFFF7D3FF01226D
:10315000950229462046FEF7D4FAFFF7CBFF00225E
:1031600029462046FEF7CDFABDE87040FFF7C2BF02
:10317000000C01402DE9F0470024164E80462546FC
:103180004FF400694FF480676006040E012239464F
:103190003046FEF7B6FAFFF7ADFF49463046FEF778
:1031A000ABFA08B1641CE4B2002239463046FEF79F
:1031B000A8FAFFF79FFF6D1CEDB2082DE4D3B8F11C
:1031C000000F04D0FFF772FF2046BDE8F087FFF73D
:1031D000B5FFF9E7000C01402DE9F041174E054617
:1031E00000244FF480674FF40068280601D50122BF
:1031F00000E0002241463046FEF783FAFFF77AFFEF
:10320000012239463046FEF77CFAFFF773FF0022B1
:1032100039463046FEF775FA072C04D101224146A3
:103220003046FEF76EFA6806050EFFF763FF641C72
:10323000E4B2082CD9D3BDE8F0810000000C0140B5
:1032400070B501220E4DD40221462846FEF759FAE8
:103250000122960231462846FEF753FAFFF74AFF4D
:10326000002221462846FEF74CFAFFF743FF0022D2
:1032700031462846FEF745FABDE87040FFF73ABFF1
:10328000000C014070B50B4D4FF400640022214644
:103290002846FEF736FA012291022846FEF731FA57
:1032A000FFF728FF21462846BDE870400122FEF7BF
:1032B00028BA0000000C014070B50122104DD40264
:1032C00021462846FEF71DFAFFF714FF0122960259
:1032D00031462846FEF715FAFFF70CFF214628462F
:1032E000FEF70AFA08B1012400E00024002231466A
:1032F0002846FEF706FAFFF7FDFE204670BD0000E7
:10330000000C01402DE9F041244D002410212846F5
:10331000FEF7F2F900B9012404212846FEF7ECF982
:1033200000B902241E4F4FF480413846FEF7E4F9FD
:1033300000B9032408212E462846FEF7DDF900B91E
:1033400004244FF400713D463846FEF7D5F900B924
:10335000052420212846FEF7CFF900B906244FF4B2
:1033600080712846FEF7C8F900B9072410212846C5
:10337000FEF7C2F900B908244FF400512846FEF7C1
:10338000BBF900B909244FF480513046FEF7B4F977
:1033900000B90A242046BDE8F08100000008014081
:1033A000000C014010B580216B2000F0C0F86420B3
:1033B000FEF7A0F800216B2000F0B9F8032000F020
:1033C00082F8002000F07AF8322000F099F800210D
:1033D000382000F0ACF800216A2000F0A8F80021A5
:1033E000232000F0A4F88021372000F0A0F87520F9
:1033F00000F011F8682801D0012010BD01216B20D8
:1034000000F095F800216C2000F091F8322000F0D7
:1034100077F8002010BD10B50446FFF711FFD0204B
:10342000FFF7DAFEFFF748FF2046FFF7D5FEFFF76C
:1034300043FFFFF705FFD120FFF7CEFEFFF73CFF6C
:103440000020FFF797FE0446FFF71CFF204610BD43
:103450002DE9F0411D4614460F460646FFF7F0FEE3
:103460007006000EFFF7B8FEFFF726FF20B1FFF74A
:1034700009FF0120BDE8F0813846FFF7ADFEFFF7F8
:103480001BFFFFF7DDFE012000EB4600C0B2FFF797
:10349000A3FEFFF711FF09E0012C0DD05FF0010042
:1034A000FFF768FE641E05F8010BE4B2002CF3D1AF
:1034B000FFF7E8FE0020DDE70020F1E7C006010E7F
:1034C0001C2000F034B8C006010E1B2000F02FB8FD
:1034D000BC2801D3012110E0622801D302210CE0B5
:1034E0002A2801D3032108E0142801D3042104E091
:1034F0000A2801D3052100E006211A2000F017B8A0
:1035000010B504464FF47A70844201D9044602E0B3
:10351000042C00D20424B0FBF4F0401EC1B21920E8
:1035200000F005F86008BDE81040FFF7D1BF70B5A6
:103530000C460546FFF784FED020FFF74DFEFFF74F
:10354000BBFE50B92846FFF747FEFFF7B5FE204601
:10355000FFF742FEFFF7B0FE18B1FFF793FE012020
:1035600070BDFFF78FFE002070BD2DE9F0411E46B3
:1035700015460F460446FFF763FE6006000EFFF790
:103580002BFEFFF799FE60B93846FFF725FEFFF7DF
:1035900093FE00240CE0305DFFF71EFEFFF78CFE6B
:1035A00020B1FFF76FFE0120BDE8F081641CE4B29A
:1035B000AC42F0D3FFF766FE0020F5E73EB50024ED
:1035C0002148009401941F4902940160891581608B
:1035D0000473047504250561C9024460C161FDF7E7
:1035E0009FFC08B1FDF7ACFB009401240520CDE958
:1035F000014069461448FDF711FC08B1FDF7A0FB36
:103600000220CDE9004069460F48FDF707FC08B1EC
:10361000FDF796FB082000900320019069460A48B8
:10362000FDF7FCFB08B1FDF78BFB0920CDE9000598
:1036300069460548FDF7F2FB002801D0FDF780FB45
:103640003EBD0000002401407C030020094808B56D
:10365000416941F0010141614069002200F001002F
:1036600000900E210B20FEF79DFABDE808400B20CC
:10367000FEF78ABA0010024002F02EBB2DE9F0439B
:1036800085B0002430480094019402940394816929
:1036900041F010018161816901F01001049181699B
:1036A00041F020018161816901F02001049181696B
:1036B00041F004018161816901F004010491816993
:1036C00041F0080181618069DFF8808000F0080026
:1036D00048F208060490002231464046FEF711F8F1
:1036E000DFF86C90F711002239464846FEF709F8DA
:1036F000780101258DE8310069461648FDF70CFF79
:1037000049F21C008DE8310069464846FDF704FF88
:1037100047F230308DE8310069464046FDF7FCFE47
:10372000CDE900650226CDE9024669464046FDF72F
:10373000F3FE00970396CDE9015469464846FDF72C
:10374000EBFE05B0BDE8F08300100240000C014024
:1037500000080140001001400D4810B50B49016000
:103760000C49416000214FF480428160C0E903129E
:1037700041618161C1610162FDF7CEFF002803D084
:10378000BDE81040FDF7DCBA10BD00000054004059
:10379000F0030020A08601000D4810B50B49016020
:1037A0000C49416000214FF480428160C0E903125E
:1037B00041618161C1610162FDF7AEFF002803D064
:1037C000BDE81040FDF7BCBA10BD00000058004035
:1037D00044040020A0860100104810B50E49016085
:1037E0004FF48271416000218160C1604FF400722A
:1037F0000161C0E905122822C0E907214162816206
:103800000A21C162FEF776FD002803D0BDE8104012
:10381000FDF796BA10BD000000300140980400206A
:1038200010B586B0002417480094019402940394C4
:1038300004941349059401604721C0E9011409214A
:10384000C0E9031480218161FEF70EFF08B1FDF786
:1038500077FA4FF48050009069460A48FEF79AFFC5
:1038600008B1FDF76DFA2020CDE9040404A905484C
:10387000FEF7C6FE002801D0FDF762FA06B010BDC3
:1038800000040040F00400200C4810B50A49016013
:103890004FF4E1314160002181600C22C160C0E938
:1038A00004128161C161FFF7ABF9002803D0BDE8C4
:1038B0001040FDF745BA10BD003801403805002022
:1038C000FEE7FEE71CB50FA10522D1E90001CDE915
:1038D00000016946302000F0CDF80522694610202D
:1038E00000F014F8002069460A5CA52A03D1401CA8
:1038F000C0B20528F8D3052801D001201CBD002046
:103900001CBD0000A5A5A5A5A50000002DE9F04758
:10391000DFF8449015460F4604464FF480780022A5
:1039200041464846FDF7EDFE21460C4800F06CF993
:103930000646002406E0FF21084800F065F93855E6
:10394000641CE4B2AC42F6D3012241464846FDF77E
:10395000D8FE3046BDE8F0870008014098040020FA
:1039600070B50C4E04464FF480750022294630464F
:10397000FDF7C7FE2146084800F046F9FF2106483A
:1039800000F042F90446012229463046FDF7B9FE0F
:10399000204670BD000801409804002010B5194C65
:1039A000002208212046FDF7ACFE052216493020F2
:1039B00000F060F814490522491D2A2000F05AF849
:1039C0000121212000F082F80121222000F07EF860
:1039D000FF21242000F07AF82821252000F076F835
:1039E0000F21262000F072F80E21202000F06EF842
:1039F000012208212046FDF784FEBDE81040012089
:103A0000FDF778BD000C01406C97000870B5174DAC
:103A10000446002208212846FDF773FE2022214695
:103A2000A02000F027F8012208212846FDF769FEB2
:103A30006C140F4D21462846FDF75EFE0028F9D193
:103A40000720FFF78DFF04460146272000F03EF8CF
:103A5000E00605D5FF21E12000F038F8102070BD08
:103A6000A00601D5202070BDFF2070BD000C0140D4
:103A7000001001402DE9F047DFF8489016460D464A
:103A800004464FF48078002241464846FDF739FE4F
:103A900021460D4800F0B8F80746002407E000BFB3
:103AA00015F8011B084800F0AFF8641CE4B2B442FA
:103AB000F6D3012241464846FDF723FE3846BDE8CD
:103AC000F087000000080140980400202DE9F04133
:103AD0000D4E0F4604464FF48075002229463046AD
:103AE000FDF70FFE2146094800F08EF804463946DE
:103AF000064800F089F8012229463046FDF701FE0C
:103B00002046BDE8F0810000000801409804002034
:103B10004FF480510148FDF7EFBD0000000C01405B
:103B20004FF400410148FDF7E7BD000000080140E7
:103B300038B50B46009204460022802100F008F8B8
:103B4000002804D0606D40F020006065032038BD7F
:103B50002DE9F8431E46914688460446089DFDF728
:103B6000D5FD401B351AFDF7D1FD074625480068F5
:103B7000C0F3CB30684338E0701C37D0FDF7C6FD8A
:103B8000C01BA84203D215B1009860B32CE0206896
:103B9000416821F0E00141606068B0F5827F0BD19F
:103BA000A068B0F5004F02D0B0F5806F04D1206856
:103BB000016821F040010160A06AB0F5005F09D101
:103BC0002068016821F4005101602068016841F417
:103BD00000510160012084F85100002084F8500059
:103BE0000320BDE8F8830025401E0090206881680E
:103BF00038EA010004D000214945BDD10020F0E79A
:103C00000121F9E7100000203EB5FF248DF80810CF
:103C1000012301AA02A90094FEF7FEFB08B18DF86A
:103C200004409DF804003EBD10B5502080F311887B
:103C3000BFF34F8FBFF36F8F05F0E6FB18B1044958
:103C40004FF080500860002080F3118810BD000004
:103C500004ED00E030B593B028216846FCF70AFB7C
:103C600014210AA8FCF706FB002501200F951095EA
:103C70001195010412958DE8230004904FF4E01093
:103C8000CDE90810022407946846FEF7A3F908B1AD
:103C900072B6FEE70AA90F2081E831004FF4806078
:103CA000CDE90D0502210AA8FEF788F808B172B621
:103CB000FEE74FF4004011900F940FA8FEF708F8AC
:103CC000002801D072B6FEE713B030BD7047000087
:103CD0000148FEF7CBBD00007C050020F0B502686E
:103CE000164B174C174D4FF08047984205D0B842FD
:103CF00003D0A04201D0A84203D122F070064A6846
:103D00003243984205D0B84203D0A04201D0A84225
:103D100003D122F44074CA6822434C6922F0800225
:103D2000224302608A68C2620A688262984201D1B4
:103D30000969016301214161F0BD0000002C0140CF
:103D4000000400400008004010B5846842EA0322E5
:103D500024F47F440A432243826010BD826822F02B
:103D600070020A4342F007018160704710B5036A90
:103D7000046A24F001040462846924F0F00444EA33
:103D8000021423F00A020A438461026210BD10B5D6
:103D9000036A23F0100303628369046A23F4704307
:103DA00043EA023224F0A00343EA01118261016276
:103DB00010BD10B5406A0021C185C184FEF718FE10
:103DC00010BD0168CA6822F49072CA6001684A692D
:103DD00022F001024A61016B012904D10168CA681D
:103DE00022F01002CA60202180F83E1000210163F9
:103DF000704708B590F83E10222901D0022008BD76
:103E000082684FF480539A4201D1016921B1816ADD
:103E10009A421BD04AB10AE00268816A5268C2F332
:103E200008020A80816A891C08E0026972B102688E
:103E3000526802F07F020A70816A491C8162C18D5A
:103E4000491E0904090CC18503D019E002685268B3
:103E5000F1E70168CA6822F02002CA600168CA68F6
:103E600022F48072CA6001684A6922F001024A6144
:103E7000202180F83E10016B012903D0FEF748FF96
:103E8000002008BD002101630168CA6822F0100209
:103E9000CA6001680A68D20602D50A6849680091BA
:103EA000818DFEF7A4FDEBE770B50446006801695B
:103EB000E26821F44051114301612169A06808437F
:103EC000616908432168CA6841F20C639A4302435E
:103ED000CA6020684169A26921F4407111434161BF
:103EE0001E492068884202D1FEF72EF801E0FEF755
:103EF0001BF800EBC00101EB001260686421800038
:103F0000B2FBF0F3B3FBF1F36FF018067343B2FBAF
:103F1000F0F5B2FBF0F605EB8305322303EB051554
:103F2000B5FBF1F5B6FBF1F605F0F00505EB06156E
:103F3000B2FBF0F6B2FBF0F0B0FBF1F06FF018025C
:103F4000504306EB800003EB0010B0FBF1F021685A
:103F500000F00F002844886070BD00000038014068
:103F600081628285C28500210164222280F83E2080
:103F700080F83C100168CA6842F48072CA60016827
:103F80004A6942F001024A610068C16841F02001BB
:103F9000C160002070472DE9F041984617460E4653
:103FA0000446069D1DE0681C1BD02DB1FDF7AEFB3D
:103FB000A0EB0800A84214D92068C16821F4D07190
:103FC000C1602068416921F001014161202084F82D
:103FD0003D0084F83E00002084F83C000320BDE84A
:103FE000F0812068006836EA000004D00020B84262
:103FF000D9D00020F3E70120F9E700000148FEF7DF
:10400000F9BC000038050020FEE700000FB4054BA6
:1040100010B503A9044A029800F09AF910BC5DF8A3
:1040200014FB0000C15C0008000100200FB47CB547
:104030000C0009AD01D0611E00E00021CDE90001B6
:10404000064B6A462946089800F082F9002C02D0F7
:10405000009A002111707CBC5DF814FB574A0008DF
:104060000FB4084B10B504A902AA039800F070F928
:10407000044602A9002000F0F9FC204610BC5DF8BF
:1040800014FB00006D4A0008490050EAC12018BF27
:1040900004204A0D18BF40F0010040F2FF72B2EB5D
:1040A000515F08BF40F00200012808BF052070479B
:1040B0000907090E002804DB00F1E02080F8001455
:1040C000704700F00F0000F1E02080F8141D7047E9
:1040D0002DE9F0414F1E00EBC7010446D1E9000174
:1040E00015461E4637F006020DD02A463346FCF729
:1040F0005DFA7F1E04EBC703D3E90023FCF7AFF999
:1041000037F00602F1D1022F25D0042F13D0062F4D
:1041100018BFBDE8F0812A463346FCF747FAD4E9D8
:104120000A23FCF79CF92A463346FCF73FFAD4E908
:104130000823FCF794F92A463346FCF737FAD4E90A
:104140000623FCF78CF92A463346FCF72FFAD4E90C
:104150000423FCF784F92A463346FCF727FAD4E90E
:104160000223FCF77CF92A463346FCF71FFAD4E910
:104170000023BDE8F041FCF772B90122FCF75DBCF9
:10418000FCF76DB90022134610461146FCF780BAC1
:10419000024A00201107FCF750BC000001FDFFFFA0
:1041A00002E008C8121F08C1002AFAD17047704700
:1041B000002001E001C1121F002AFBD1704700005E
:1041C0000149086070470000040100202DE9FF5FED
:1041D00082B00021DDE90430020DDDF840B0034378
:1041E00018D044F61050A2F2FF3242431514119831
:1041F00001281FD0A5EB0B00401C5FEA000A4FF01E
:1042000000064E4FDFF83891B046504615D5CAF13A
:10421000000413E0119801244AA3012801D16FEA98
:104220000B010298119AC0E90031C0E9024206B0C0
:10423000BDE8F09FCBF10000DFE704460021404AD3
:10424000491842EB0450CDE9001012E0E00707D016
:1042500032463B4640464946FCF7A8F98046894627
:1042600032463B4610461946FCF7A0F906460F4673
:104270006410002CEAD1DDE90401DDE90023BAF184
:10428000000F06DAFCF792F942464B46FCF78EF92E
:1042900005E0FCF7FDF942464B46FCF7F9F9044608
:1042A0000E460022284BFCF70FFC03D84FF0FF30DE
:1042B000014607E00022254B20463146FCF7CFF8A7
:1042C000FCF7D2FB102409E0002C0ADB0A220023B1
:1042D000FCF7CDFA039B30321A55641E50EA0102F6
:1042E000F2D1641C039AC4F111031444119A012AF7
:1042F00003D0012208430DD10AE0084304D0002076
:104300004FF0110B119072E7A3EB0B056D1E0DE042
:104310005B4504DD4FF0000205F1010504E003DA1E
:104320004FF00002A5F10105002AECD00298119986
:10433000C0E90231C0E9004579E7000000001440FF
:104340000000F03F300000000000F0430000E03FBC
:104350002DE9FF4F95B09A46884606460025EEE1C6
:10436000252877D100242746F94A0121039400E04B
:10437000044316F8013F203B01FA03F01042F7D145
:1043800030782A2811D06FF02F033078A0F1300256
:10439000092A16D8039A44F0020402EB820203EBC6
:1043A00042021044761C0390EFE758F8042B039266
:1043B000002A03DA504244F40054039044F002040B
:1043C000761C30782E2816D116F8010F44F004041C
:1043D0002A280DD06FF02F023078A0F13003092B7E
:1043E00009D807EB870302EB4303C718761CF3E7F2
:1043F00058F8047B761C30786C280FD006DC4C28EB
:1044000017D068280DD06A2814D104E0742810D081
:104410007A280FD10DE044F400140AE044F480142B
:1044200001E044F440147278824202D104F5801411
:10443000761C761C307866280BD013DC582877D091
:1044400009DC002875D04528F6D04628F4D0472846
:104450001AD193E118E0632835D0642879D0652813
:1044600012D18BE1702873D008DC6728F1D069285D
:104470006FD06E280DD06F2806D1ACE073282CD0F9
:10448000752874D0782853D05246179990476D1CE0
:1044900054E1C4F30250022809D003280DD0D8F803
:1044A000001004280DD00D6008F1040846E1D8F88A
:1044B0000010EA17C1E90052F6E7D8F800100D80A5
:1044C000F2E70D70F0E718F8041B8DF800100020DB
:1044D0008DF80100EB46012003E058F804BB4FF0D3
:1044E000FF3061074FF0000102D40DE009F1010136
:1044F0008946B9420FDA8145F8DB1BF8091000291B
:10450000F4D108E009F1010189468142FADB1BF888
:1045100009100029F6D103985346A0EB090721465C
:104520003846179A00F080FA284400EB090507E0A6
:1045300044E008E10DE01BF8010B52461799904743
:10454000B9F10109F7D2534621463846179AF2E0ED
:1045500039E00A21C4F302524FF0000B0091022A05
:1045600006D058F8040BC117032A09D00AE023E04B
:1045700008F1070020F00702F2E80201904605E08A
:1045800000B2C117042A01D140B2C117002906DACE
:104590000A460021404261EB02012D2202E0220581
:1045A00004D52B228DF80420012203E0E20701D07C
:1045B0002022F7E7914657E00A2100E010214FF052
:1045C000000B00910BE010214FF0000B44F00404AD
:1045D0000827009103E008204FF0000B0090C4F37F
:1045E0000252022A05D058F8040B0021032A08D0F1
:1045F00008E008F1070020F00702F2E80201904607
:1046000003E080B2042A00D1C0B24FF000092207B3
:104610002AD53278702A07D0DDF800C08CF0100C53
:104620005CEA0B0C05D00EE040228DF8042001223C
:1046300008E050EA010306D030238DF804308DF8ED
:10464000052002229146009B83F0080353EA0B03E6
:104650000AD150EA010201D1620705D530228DF856
:1046600004204FF001097F1E3278582A04D039A265
:104670000C920CAA02920BE03BA2F9E75B46009A6F
:10468000FCF7F5F80C9B9B5C029A521E0292137089
:1046900050EA0102F2D1029804A9081A00F1200B95
:1046A000600702D524F4803400E001275F4502DD75
:1046B000A7EB0B0000E0002000EB0B01009003983B
:1046C0004944401A0390E00306D453462146179A02
:1046D000039800F0A9F90544002706E001A8524616
:1046E000C05D179990476D1C7F1C4F45F6DBE003BA
:1046F0000CD553462146179A039800F095F90544C6
:1047000004E030205246179990476D1C0099481ECE
:1047100000900029F5DC08E00298029952460078E2
:10472000491C0291179990476D1CBBF10001ABF138
:10473000010BF1DC5BE100F065F90544761C307893
:1047400000287FF40DAE19B02846BDE8F08F0000B8
:104750000928010030313233343536373839616257
:10476000636465660000000030313233343536371B
:10477000383941424344454600000000600700D4F8
:10478000062708F1070020F00700F0E80223804622
:1047900003F0004C5FEA0C0001D097A009E020056F
:1047A00001D596A005E0E00701D095A001E0AFF2A9
:1047B0004C001390307823F0004365280CD006DCC1
:1047C000452809D046281DD047287FD13BE06628E0
:1047D00018D067287AD136E00021112F01DB112093
:1047E00000E0781CCDE9000104A90CA8FFF7EEFC5D
:1047F000DDE90D010C9A4FF0000B07F10109109251
:1048000000914EE04FF000400097CDE9011004A95F
:104810000CA8FFF7DBFCDDE90D020C9B0F994FF0B4
:10482000000B91461093009211B9791C00EB01091D
:10483000B7EB090003D4C0F1FF3B07F10109A9EB75
:104840000700019042E0012F00DA01270021112F1B
:1048500001DD112000E03846CDE9000104A90CA8D3
:10486000FFF7B4FCDDE90D010C9A00914FF0000B4D
:10487000B946109221070FD4009A4A4503DA9146AF
:1048800001E0A9F10109B9F1010F05DD109AA9F1C3
:104890000101515C3029F4D0B84202DA10F1040F62
:1048A00003DA0121CDE9011010E0002803DC834484
:1048B000A9EB000102E0411C494500DD8946A0EB5F
:1048C0000B00401C01904FF000400290200705D4DF
:1048D0000198484502DB4FF0FF30019000208DF831
:1048E0004B0002980DF14B07B0F1004F25D002208C
:1048F0000C902B200D90029800280CDA4042029078
:104900002D200D9007E00A210298FBF79AFF303125
:10491000029007F8011D0C99481E0C900029F2DC4A
:1049200002980028EFD1791E0D980870307800F0B9
:10493000200040F0450007F8020D11A8C01BC01D63
:1049400002901398007800B1012000EB0901019852
:1049500001EBE071029801440398401A401E039055
:10496000E00306D453462146179A039800F05CF8FA
:1049700005441398007818B15246179990476D1C5A
:10498000E00323D553462146179A039800F04CF8CC
:1049900005441BE0BBF1000F07DB0098584504DD20
:1049A0001098179910F80B0001E017993020524623
:1049B000904701980BF1010B401E05F10105019094
:1049C00004D12E205246179990476D1CB9F1000171
:1049D000A9F10109DEDC05E017F8010B5246179931
:1049E00090476D1C0299481E02900029F4DC534642
:1049F0002146179A03989EE62D0000002B00000028
:104A0000200000002DE9F041044600251E4617460F
:104A1000880404D405E039462020B0476D1C641E8C
:104A2000F9D52846BDE8F0812DE9F041044600257E
:104A30001E469046C80301D5302700E02027880491
:104A400004D505E041463846B0476D1C641EF9D5D3
:104A50002846BDE8F0814A68002A06D00A68531C3F
:104A60000B6010704868401E486070470A68531C0D
:104A70000B601070704700002DE9FE4F07460E4690
:104A80000025684601F04CF900246FF00F0AE84653
:104A90004FF0010957F8240056F82410401A00D5A9
:104AA0004042FBF764FE5146FBF7CDFC58F824105A
:104AB00011F0FF4F0BD0FBF788FC4FF07E51FBF756
:104AC0004CFC0A4920F00040884205DC07E0084918
:104AD00008440849884202D309FA04F00543641CDB
:104AE000032CD7DB2846BDE8FE8F0000295C0F3E73
:104AF000666666C19A99D9002DE9F04D8D4F21F077
:104B0000004A86B005460C46BA452ADBAAEB0700E8
:104B100028430AD08848824501DC1AD1CDB106B0BD
:104B20002846BDE8F04DFFF728BB844A844B284651
:104B3000FBF73CFD07460E46824A834B284621463A
:104B4000FBF734FD06B03A463346BDE8F04DFBF7BF
:104B500086BC0120FFF734FB06B0BDE8F04DFFF73F
:104B600011BB7A48824542DABAF1795F0BDA2846FE
:104B7000FFF78AFA042808BFFFF70AFB284606B0A9
:104B80002146BDE8F08D2A460B461046FBF70EFD88
:104B9000834602466E480E460B4606217844FFF7D0
:104BA00097FA5A463346FBF701FD804669488A4624
:104BB0005A46334604217844FFF78AFA5A46334668
:104BC000FBF7F4FC00223B46FBF749FC02460B4690
:104BD00040465146FBF75CFD2A462346FBF7E6FCC0
:104BE00006B02A462346BDE8F04DFBF738BC284600
:104BF00024F0004100223D463B46FBF7D4FC4FF039
:104C0000FF32FBF71AFF0646024653480F460B4693
:104C100006217844FFF75CFA32463B46FBF7C6FCB8
:104C2000CDE900014D4832463B4604217844FFF768
:104C30004FFA32463B46FBF7B9FC00222B46FBF706
:104C40000EFC834602913046394602F0C1FE804692
:104C500043480D46504517DCDDE900015A46029BEA
:104C6000FBF716FD42462B46FBF7A0FC42462B46BF
:104C7000FBF7F5FB0122FBF7E0FE304A304BFBF778
:104C80008FFC304A304B4CE04FF0000A52460B4646
:104C90004046FBF7E4FBCDE9031052462B46104695
:104CA0001946FBF783FC32463B46FBF77CFCDDE90B
:104CB0000332FBF7EDFC06460F46DDE900015A46DC
:104CC000029BFBF7E5FC8346009101223046394602
:104CD000FBF7B3FE194A1A4BFBF765FC06460F4675
:104CE000012240462946FBF7A8FE5A46009BFBF7E7
:104CF0005DFC32463B46FBF753FC06460F4601225D
:104D000050462946FBF799FE0E4DDFF858802A469B
:104D10004346FBF748FC32463B46FBF744FC2A4639
:104D20004346FBF740FC002CD8BF81F0004106B0A1
:104D3000BDE8F08D0000F03F0000F07F075C143309
:104D400026A6913C182D4454FB21F93F0000E03F7A
:104D500080860000968600000A86000020860000FB
:104D60003333EF3FFB21E93F2DE9F84F04460D4671
:104D700021F0004000917349814211DC7249884260
:104D800001DC06D12CB120462946BDE8F84FFFF7DB
:104D9000F4B96E48002DCCBF6D496E49BDE8F88F5F
:104DA0006D49814211DD6D498142D8BF4FF0FF3618
:104DB0006DDD20462946FFF767F9042808BFFFF795
:104DC000E7F920462946BDE8F88F6549654F25F08B
:104DD0000045814233DD6449814219DD00263246B7
:104DE0004FF0804320462946FBF739FB80468A4630
:104DF000012220462946FBF720FE00223B46FBF716
:104E0000CFFB42465346FBF743FC04460D463EE0CB
:104E100001260022BA463B4620462946FBF71FFBE7
:104E200080460F460022534620462946FBF7B8FB32
:104E300042463B46FBF72CFC04460D4627E04B4917
:104E400081421BDDDFF828A10226002253462046BE
:104E50002946FBF7ABFB00223B46FBF700FB8046F5
:104E60000F460022534620462946FBF799FB42464F
:104E70003B46FBF70DFC04460D4608E003262246A0
:104E80002B4600203B49FBF703FC04460D46224617
:104E90002B4610461946FBF789FB8B468246024695
:104EA0000B46FBF783FB07460246334888460B4612
:104EB00006217844FFF70CF952465B46FBF776FB78
:104EC00082462E488B463A46434605217844FFF7F2
:104ED000FFF83A464346FBF769FB02460B46002EB5
:104EE000504659460CDAFBF7BAFA22462B46FBF736
:104EF0005DFB01B022462B46BDE8F04FFBF753BBEC
:104F0000FBF7ADFA22462B46FBF750FB1C4A7A44CE
:104F100002EBC603D3E90023FBF742FB22462B46F4
:104F2000FBF73EFB174A7A4402EBC603D3E90023A2
:104F3000FBF739FB009A002AB8BF81F00041BDE8B9
:104F4000F88F0000000010440000F07F182D44543A
:104F5000FB21F93FFB21F9BF0000DC3F0000203EB0
:104F60000000F33F0000F03F0000E63F00800340F8
:104F70000000F83F0000F0BF22840000E083000042
:104F80007E830000468300002DE9F04D9446CCF16D
:104F9000000423F000464CEA0404594F46EAD47456
:104FA0009A46884621F00042BC4206D8454240EA73
:104FB000050442EAD474BC4204D9BDE8F04D62460F
:104FC000FFF7DEB8AAF14055A5F17F6555EA0C045C
:104FD0000BD0022404EAAA744A4DDFF82CE144EA1B
:104FE000D87452EA000B04D00CE0BDE8F04DFFF796
:104FF000BBBE002C14BF012CBDE8F08D022C30D0BC
:10500000032C32D056EA0C0B0AD0BE4220D1BA4251
:1050100009D126F0804622F080423346114617E03F
:1050200000291ADB25E0DFF8E4B0FB44002C04BFC4
:10503000DBE90001BDE8F08D012C02BFDBE90001D6
:1050400081F00041BDE8F08D022C0AD0032C0CD079
:10505000BA4212D1B8F1000F0BDA2A482C49BDE848
:10506000F08D28462B49BDE8F08D28467146BDE8F5
:10507000F08D24482849BDE8F08D921B12153C2A7A
:10508000C4BF204F244E10DCBAF1000FBEBF12F196
:105090003C0F00273E4608DB6246FBF7F9FA21F099
:1050A0000041FFF761FE07460E4694B1012C08BF90
:1050B00086F000460DD0194A194B022C384631466D
:1050C00015D0FBF76DFA2A46BDE8F04D114BFBF702
:1050D00067BA0022134638463146FBF7DDFC04BFB1
:1050E0000220FFF76DF838463146BDE8F08DFBF73A
:1050F00057FA2A46BDE8F04D064BFBF754BA0000BC
:105100000000F07F182D4454FB2109C0DA82000012
:10511000FB21F9BFFB210940FB21F93F075C143358
:1051200026A6A13C0EB53E4C3E4802F0CFFC3EA365
:105130000C2220213B4802F06DFD3BA1394802F0D2
:1051400097FD2030364B81B22C330C22354802F0CB
:1051500061FDFEF7E5FC01282ED035A3362226217D
:10516000304802F057FD2F4B4022B4330C212D481C
:1051700002F050FD2B482A4BB43000902C332EA265
:1051800020212038FEF752FF00231A461946606A94
:1051900003F00CFF23489430FEF738FC214802F05E
:1051A00085FD002003F0FEFB014625A0FEF72EFF43
:1051B0000A2003F0B7FCB7E71A4B1822CE3326219A
:1051C000184802F027FD174B2222D8332621154814
:1051D00002F020FD1FA32C222221124802F01AFD0A
:1051E0001CA1104802F044FD223081B20C4B2C224D
:1051F0000C4802F00FFD0B4A0948D832A2F10A010F
:105200008DE8070000F12C03064815A220219430F8
:10521000FEF70CFF00231A461946A06AB8E7000003
:10522000280000208C06002053706565643A200039
:105230004D7075363035300025732C257300000015
:10524000646174615F68616E646C653A25640D0A1F
:10525000000000004B65794E756D3A20000000009B
:1052600025732C25732C25732C25730008B560B18C
:1052700020208DF8000028208DF8010030208DF8C6
:10528000020038208DF8030004E0A32204216846C0
:10529000FAF7E9FF6A46042140F69E2001F0B8FFC4
:1052A00001F076FC08BD00003EB5044602208DF8F2
:1052B0000000CA208DF80100E3208DF802000920CB
:1052C0008DF803006A460421682001F0A1FFA320A5
:1052D0008DF80000610609D5C0218DF80110C821A4
:1052E0008DF80210C2218DF8031005E08DF8010041
:1052F0008DF802008DF8030014F4C07F09D0C4219A
:105300008DF80410CC218DF80510C6218DF80610FB
:1053100005E08DF804008DF805008DF806008DF885
:1053200008008DF807008DF809006A460A2140F64A
:10533000A72001F06DFFA0074FF0D80503D0202073
:105340008DF8000001E08DF800506A46012140F61A
:10535000B62001F05DFFA00601D5012000E000208D
:1053600000F08EF814F4C07F1ED0E0050AD5B220FC
:105370008DF800008B208DF80100B6208DF802001A
:105380009B2009E0B0208DF8000080208DF80100FE
:10539000B4208DF8020090208DF803006A460421A5
:1053A00040F6A22001F034FFE1074FF40B6022D059
:1053B000F8218DF800106A46012101F029FFFA2139
:1053C000072000F049FB072000F014FB012000F04B
:1053D00031FB642000F0D4FB4FF4FA7000F0E0FBE6
:1053E000C821254800F0CEFA282000F0E3FA0A2070
:1053F00000F0F0FA05E08DF800506A46012101F056
:1054000007FFA00703D5D9208DF8000001E08DF833
:1054100000506A46012140F23D7001F0F9FE60073C
:1054200001D5012000E0002000F048F8E00601D599
:10543000012000E00020FFF719FF104D44F00800A4
:10544000688101F0A5FB0020A873600601D5062045
:10545000A87314F4C07F02D0A87B801DA87314F039
:10546000140F02D0A87B1030A873A00702D0A87B2D
:10547000001DA87300203EBD09E3CA02700B002086
:105480000EB54FF4976310B106A107C901E008A259
:1054900007CA8DE807006A460921184601F0B8FEE0
:1054A0000EBD0000B8AAB38DB4980D355D000000A4
:1054B000B8AAAAAAB088C3C5C700000008B560B1E1
:1054C000C0208DF80000C2208DF80100C4208DF8A6
:1054D0000200C6208DF8030004E08B2204216846F8
:1054E000FAF7C1FE6A46042140F6982001F090FECA
:1054F00001F04EFB08BD0000C8234FF48062024952
:1055000040F6F63001F026BA28C600082DE9FF4F14
:1055100089B01746DDE916520024544E884681466C
:105520002C80A246B07B694601F0C0FA4FF0FF3BE9
:1055300018B158460DB0BDE8F08F708910F0140F07
:105540004CD0BDF800109DF8022049BA090441EA88
:1055500002239DF803100B433B60BDF804109DF837
:10556000062049BA090441EA02229DF807101B14DB
:105570000A437A60BDF808109DF80A4049BA090448
:1055800041EA04219DF80B4012142143B960BDF893
:105590000C409DF80EC064BA240444EA0C2C9DF81B
:1055A0000F4009144CEA040CC7F80CC04FEA2C4712
:1055B0005B43494302FB023207FB071111441024ED
:1055C000A1F17061B1F1007F04D901F0E1FAA5F811
:1055D00000A0AEE7298841F480712980420669461F
:1055E00011D50A19A41D13885BBAA8F80030538896
:1055F0005BBAA8F80230928852BAA8F804202A8828
:1056000042F008022A8010F4C07F11D00A19A41DAC
:1056100013885BBAA9F8003053885BBAA9F8023046
:10562000928852BAA9F804202A8842F070022A808F
:10563000800716D00C44E07800F0C00500F03F0170
:105640006078C00706D0C80801F007013268491C1D
:1056500002B190476078000703D5716809B1A809C5
:1056600088470C9800F078FE002063E7700B00205C
:105670002DE9FF41044603A801F022F8BDF80C0013
:10568000410CC3032F48008900F0030254F8225054
:10569000420700D56D42C0F3C102860654F82220AD
:1056A00000D55242C0F38116C00554F8264000D5FB
:1056B0006442A5FB0367E81700FB037005FB0100CC
:1056C000850045EA9670A2FB0367D51705FB0375B5
:1056D00002FB0152950045EA9672A4FB0367E517A9
:1056E00005FB037304FB01318B0043EA9671030E43
:1056F0008DF80030030C8DF80130030A8DF802306C
:105700008DF80300100E8DF80400100C8DF80500C4
:10571000100A8DF80600080E8DF80800080C8DF8A8
:105720000900080A8DF80A008DF807208DF80B1083
:105730006A460C214FF4257001F06AFD04B0BDE803
:10574000F0810000700B002030B5044613A285B034
:1057500007CA8DE807004FF0FF35C82C16D8C820BF
:10576000B0FBF4F1491E080A8DF80C008DF80D10FD
:1057700003AA022140F2162001F04AFD30B96A4620
:105780000C2140F6C12001F043FD10B1284605B0C0
:1057900030BD054884810020F9E70000FEF2ABC46B
:1057A000AAF1DFDFBBAFDFDF700B0020F8B53049B7
:1057B000098901F0030250F822404A0700D56442EB
:1057C000C1F3C1028B0650F8222000D55242C1F32A
:1057D000811350F82330C80500D55B42254984FB6E
:1057E0000140850045EA947082FB0142A40F44EA1F
:1057F000820483FB0121950F45EA8105010E8DF896
:105800000010010C8DF80110010A8DF802108DF8BE
:1058100003006A4604214FF4747001F0F9FC4FF064
:10582000FF3688B9200E8DF80000200C8DF801009D
:10583000200A8DF802008DF803406A4604214FF4D7
:10584000757001F0E5FC08B13046F8BD280E8DF802
:105850000000280C8DF80100280A8DF802008DF850
:1058600003506A4604214FF4767001F0D1FCF8BD74
:10587000700B002009E3CA022DE9FF4104463CA059
:1058800004F00303006802903AA0006803903AA075
:1058900006683AA0056802A8C15C8DF80010C4F340
:1058A000C101425C8DF80120C4F38112805C8DF847
:1058B000020003A8C35C8DF80430415C8DF805102C
:1058C000805C8DF806006A46032140F2264001F014
:1058D0009FFC4FF0FF37E0BB01AA032140F22A40B2
:1058E00001F096FCA8BBCDE9006560070BD59DF8DB
:1058F000000040F001008DF800009DF8040040F029
:1059000001008DF80400A0060BD59DF8010040F0C1
:1059100001008DF801009DF8050040F001008DF8B0
:105920000500E0050BD59DF8020040F001008DF860
:1059300002009DF8060040F001008DF806006A465E
:1059400003214FF4886001F063FC10B901AA032120
:1059500000E004E040F2314001F05AFC18B1384652
:1059600004B0BDE8F081064804810020F8E700009B
:105970004CCD6C000CC92C003656760026466600CD
:10598000700B00204FF47A7290FBF2F008B5484398
:10599000010E8DF80010010C8DF80110010A8DF830
:1059A00002108DF803006A4604214FF4AE7001F036
:1059B0002FFC08BD0521B0FBF1F008B5010A8DF8F8
:1059C00000108DF801006A4602214FF4AD7001F01D
:1059D0001FFC08BD0521B0FBF1F008B5010A8DF8E8
:1059E00000108DF801006A4602214FF4AC7001F0FE
:1059F0000FFC08BD08B500218DF80010C10702D0CA
:105A000030218DF80010810705D59DF8001041F078
:105A10000C018DF80010400705D59DF8000040F0FE
:105A200003008DF800006A4601214FF4A47001F0D4
:105A3000EFFB08BD08B560B1042800D90420401E62
:105A40008DF800006A46012140F24F1001F0E0FBA2
:105A500008BD0120F3E700002DE9FC4105464007A1
:105A60004FF0FF367CD0B1F5C86F79D80846FAF709
:105A700087FE3E49FAF7A9FC074601A800F002FE9E
:105A80009DF80400022806D004280DD008282ED046
:105A9000102865D134E00E213846FAF7D4FCFAF725
:105AA0008DFE84B2324907E00D213846FAF7CBFC6F
:105AB000FAF784FE2F4984B23846FAF754FCFAF715
:105AC0007DFE210A8DF8001080B28DF80140010A98
:105AD0008DF802108DF80300E8076C4620D02246AE
